:100000000C9462000C948A000C948A000C948A0070
:100010000C948A000C948A000C948A000C948A0038
:100020000C948A000C948A000C948A000C948A0028
:100030000C948A000C948A000C948A000C948A0018
:100040000C947A030C948A000C94EA030C94C40375
:100050000C948A000C948A000C948A000C948A00F8
:100060000C948A000C948A000000000024002700F1
:100070002A0000000000250028002B0000000000DE
:1000800023002600290004040404040404040202DA
:100090000202020203030303030301020408102007
:1000A0004080010204081020010204081020000012
:1000B0000008000201000003040700000000000027
:1000C0000000380411241FBECFEFD8E0DEBFCDBF43
:1000D00011E0A0E0B1E0E2E3FEE002C005900D9285
:1000E000AA38B107D9F722E0AAE8B1E001C01D9211
:1000F000AE37B207E1F710E0C2E6D0E004C02197C6
:10010000FE010E940C07C136D107C9F70E94A9045D
:100110000C9417070C940000833081F028F4813090
:1001200099F08230A9F008958730A9F08830C9F09D
:100130008430B1F4809180008F7D03C08091800075
:100140008F7780938000089584B58F7784BD08955C
:1001500084B58F7DFBCF8091B0008F778093B00006
:1001600008958091B0008F7DF9CFCF93DF93282F32
:1001700030E0F901E255FF4F8491F901E656FF4F57
:10018000D491F901EA57FF4FC491CC23A1F081111A
:100190000E948C00EC2FF0E0EE0FFF1FE458FF4FA1
:1001A000A591B491EC91ED2381E090E009F480E019
:1001B000DF91CF91089580E090E0FACF1F93CF9325
:1001C000DF93282F30E0F901E255FF4F8491F901C8
:1001D000E656FF4FD491F901EA57FF4FC491CC2363
:1001E000A9F0162F81110E948C00EC2FF0E0EE0F89
:1001F000FF1FEE58FF4FA591B4918FB7F894EC9183
:10020000111108C0D095DE23DC938FBFDF91CF9111
:100210001F910895DE2BF8CFCF93DF9390E0FC0180
:10022000E656FF4F24918A579F4FFC018491882303
:10023000C9F090E0880F991FFC01E859FF4FA59184
:10024000B491FC01EE58FF4FC591D49161110DC0DE
:100250009FB7F8948C91209582238C9388812823D2
:1002600028839FBFDF91CF910895623051F49FB7EB
:10027000F8943C91822F809583238C93E8812E2BD8
:10028000EFCF8FB7F894EC912E2B2C938FBFEACF42
:100290003FB7F8948091990190919A01A0919B01A8
:1002A000B0919C0126B5A89B05C02F3F19F001967F
:1002B000A11DB11D3FBFBA2FA92F982F8827BC01C0
:1002C000CD01620F711D811D911D42E0660F771FE8
:1002D000881F991F4A95D1F7089521E0FC012483D6
:1002E00061E082810C94DE00FC01148260E0828176
:1002F0000C94DE00AF92BF92CF92DF92EF92FF920A
:100300000F931F93CF93DF936C017B018B01040F3D
:10031000151FEB015E01AE18BF08C017D10759F0D9
:100320006991D601ED91FC910190F081E02DC6011B
:100330000995892B79F7C501DF91CF911F910F9115
:10034000FF90EF90DF90CF90BF90AF900895FC01A9
:10035000538D448D252F30E0842F90E0821B930B2A
:10036000541710F0CF96089501970895FC01918DD0
:10037000828D981761F0A28DAE0FBF2FB11D5D96D3
:100380008C91928D9F5F9F73928F90E008958FEF75
:100390009FEF0895FC01918D828D981731F0828D29
:1003A000E80FF11D858D90E008958FEF9FEF089580
:1003B000FC01918D228D892F90E0805C9F4F821BE4
:1003C00091098F73992708958DE991E00E94D801D2
:1003D00021E0892B09F420E0822F089580E090E04D
:1003E000892B29F00E94E40181110C9400000895EA
:1003F000FC01A48DA80FB92FB11DA35ABF4F2C919A
:10040000848D90E001968F739927848FA689B78990
:100410002C93A089B1898C91837080648C93938D87
:10042000848D981306C00288F389E02D80818F7D2A
:1004300080830895EF92FF920F931F93CF93DF93E2
:10044000EC0181E0888F9B8D8C8D98131AC0E88910
:10045000F989808185FF15C09FB7F894EE89FF89DF
:100460006083E889F98980818370806480839FBF7D
:1004700081E090E0DF91CF911F910F91FF90EF907D
:100480000895F62E0B8D10E00F5F1F4F0F7311278D
:10049000E02E8C8D8E110CC00FB607FCFACFE889C8
:1004A000F989808185FFF5CFCE010E94F801F1CF57
:1004B000EB8DEC0FFD2FF11DE35AFF4FF0829FB73C
:1004C000F8940B8FEA89FB8980818062CFCFCF932C
:1004D000DF93EC01888D8823B9F0AA89BB89E8896C
:1004E000F9898C9185FD03C0808186FD0DC00FB612
:1004F00007FCF7CF8C9185FFF2CF808185FFEDCF90
:10050000CE010E94F801E9CFDF91CF910895CF92FB
:10051000DF92EF92FF920F931F93CF93DF93EC0143
:100520008D819E81AF81B8858A019B01081B190BC3
:100530002A0B3B0BD901C801C984DA84EB84FC8403
:100540008C159D05AE05BF0570F08C81882359F090
:100550006A017B011C8260E08A810E94DE00CD82FC
:10056000DE82EF82F886DF91CF911F910F91FF908D
:10057000EF90DF90CF900895CF92DF92EF92FF92AD
:100580000F931F93CF93DF93EC018D819E81AF81F9
:10059000B8858A019B01081B190B2A0B3B0BD9015B
:1005A000C801C984DA84EB84FC848C159D05AE05F2
:1005B000BF0578F08C8181110CC06A017B0181E05C
:1005C0008C8361E08A810E94DE00CD82DE82EF8230
:1005D000F886DF91CF911F910F91FF90EF90DF9000
:1005E000CF900895CF92DF92EF92FF920F931F93D7
:1005F000CF93DF93EC018D819E81AF81B8858A0115
:100600009B01081B190B2A0B3B0BD901C801C9849C
:10061000DA84EB84FC848C159D05AE05BF0570F073
:100620008C81882359F06A017B011C8260E08A81F9
:100630000E94DE00CD82DE82EF82F886DF91CF91CC
:100640001F910F91FF90EF90DF90CF900895CF9280
:10065000DF92EF92FF920F931F93CF93DF93EC0102
:100660008D819E81AF81B8858A019B01081B190B82
:100670002A0B3B0BD901C801C984DA84EB84FC84C2
:100680008C159D05AE05BF0578F08C8181110CC0DD
:100690006A017B0181E08C8361E08A810E94DE0037
:1006A000CD82DE82EF82F886DF91CF911F910F918C
:1006B000FF90EF90DF90CF900895FC010190002013
:1006C000E9F73197AF01481B590BBC018DE991E067
:1006D0000C947A01CF93DF930E945D03EC0182E3D7
:1006E00091E00E945D038C0F9D1FDF91CF910895D3
:1006F0000E9412071F920F920FB60F9211242F9390
:100700003F938F939F93AF93BF9380919501909167
:100710009601A0919701B09198013091940123E046
:10072000230F2D3758F50196A11DB11D209394017B
:100730008093950190939601A0939701B0939801AF
:100740008091990190919A01A0919B01B0919C0197
:100750000196A11DB11D8093990190939A01A093D8
:100760009B01B0939C01BF91AF919F918F913F915D
:100770002F910F900FBE0F901F90189526E8230F12
:100780000296A11DB11DD2CF1F920F920FB60F92EC
:1007900011242F933F934F935F936F937F938F9386
:1007A0009F93AF93BF93EF93FF938DE991E00E94E6
:1007B000F801FF91EF91BF91AF919F918F917F9140
:1007C0006F915F914F913F912F910F900FBE0F90BE
:1007D0001F9018951F920F920FB60F9211242F930E
:1007E0008F939F93EF93FF93E091AD01F091AE0152
:1007F0008081E091B301F091B40182FD1BC0908132
:100800008091B6018F5F8F732091B701821741F0FD
:10081000E091B601F0E0E356FE4F958F8093B6016C
:10082000FF91EF919F918F912F910F900FBE0F909D
:100830001F9018958081F4CFCF93DF93EC01862F22
:1008400024E031E0398328836A837B831C821D8204
:100850001E821F82188619861A861B861C8661E0F6
:100860000E940C0160E08A81DF91CF910C94DE0040
:10087000CF93DF93EDE9F1E01382128288EE93E0EB
:10088000A0E0B0E084839583A683B7838CE091E0F9
:100890009183808385EC90E09587848784EC90E059
:1008A0009787868780EC90E0918B808B81EC90E03D
:1008B000938B828B82EC90E0958B848B86EC90E01E
:1008C000978B868B118E128E138E148E67E070E0DC
:1008D00081E792E00E941C04CEE2D1E0D093720244
:1008E000C09371026DE070E084E692E00E941C0407
:1008F000D0936502C093640264E070E087E592E003
:100900000E941C04D0935802C09357026AE070E022
:100910008AE492E00E941C0486E291E090934B02EC
:1009200080934A0269E070E08DE392E00E941C042B
:100930008EE191E090933E0280933D0286E090E04C
:1009400090933B0280933A0260E0DF91CF910C9448
:100950000C01CF93DF93CDB7DEB7A1970FB6F89414
:10096000DEBF0FBECDBF789484B5826084BD84B5F0
:10097000816084BD85B5826085BD85B5816085BD9A
:1009800080916E00816080936E0010928100809152
:1009900081008260809381008091810081608093DA
:1009A0008100809180008160809380008091B100FF
:1009B00084608093B1008091B00081608093B0002A
:1009C00080917A00846080937A0080917A008260BE
:1009D00080937A0080917A00816080937A00809180
:1009E0007A00806880937A001092C100E091AD0196
:1009F000F091AE0182E08083E091A901F091AA011B
:100A00001082E091AB01F091AC018FEC80831092E9
:100A1000B501E091B101F091B20186E08083E091EF
:100A2000AF01F091B001808180618083E091AF01DE
:100A3000F091B001808188608083E091AF01F091F6
:100A4000B001808180688083E091AF01F091B001B6
:100A500080818F7D808362E085E00E940C013324D9
:100A6000339498E8492E93E1592E612C712C8FB75D
:100A7000F894C0909501D0909601E0909701F09085
:100A800098018FBF19A2A70196018E010F5D1F4F1C
:100A9000CA01B9012AE030E040E050E00E94EA06D5
:100AA000605DF80162938F01211531054105510503
:100AB00079F7309719F0CF010E945D0382E391E04E
:100AC0000E945D0385E00E94B500019751F5809179
:100AD0009301811126C0B701A6018AE492E00E9429
:100AE0002703B701A60184E692E00E94BC02B70189
:100AF000A60187E592E00E94BC02C0928F01D092CD
:100B00009001E0929101F0929201C0928B01D092FB
:100B10008C01E0928D01F0928E013092930110923F
:100B20008A0180919301882309F4F1C085E391E063
:100B30000E946A0380913A020E94B50021E000976A
:100B400009F420E020933C02892B19F1B701A6019A
:100B50008AE492E00E94F20230928A01B701A60173
:100B600084E692E00E948702B701A60181E792E045
:100B70000E948702B701A60187E592E00E948702E2
:100B80003092410261E080913F020E94DE001092AB
:100B9000930180915C0290915D02A0915E02B09100
:100BA0005F02A7019601281B390B4A0B5B0BDA0188
:100BB000C901883B9B40A105B10530F0B701A601F2
:100BC00087E592E00E94870280918F0190919001C9
:100BD000A0919101B0919201A7019601281B390BB8
:100BE0004A0B5B0BDA01C90180319742A105B105BF
:100BF00008F46AC080918A01811166C080918B01DE
:100C000090918C01A0918D01B0918E01A701960168
:100C1000281B390B4A0B5B0BDA01C901843F914059
:100C2000A105B105B0F0809175028111C0C081E4C9
:100C300091E00E946A03B701A60181E792E00E9459
:100C4000BC02C0928B01D0928C01E0928D01F09297
:100C50008E0180918F0190919001A0919101B091AE
:100C60009201A7019601281B390B4A0B5B0BDA0195
:100C7000C90180329E44A105B10508F4A3C08CE6E9
:100C800091E00E946A03B701A60181E792E00E9409
:100C90008702B701A60187E592E00E948702B701AB
:100CA000A60184E692E00E9487021092410260E071
:100CB00080913F020E94DE00B701A6018AE492E023
:100CC0000E94F2021092930180914F029091500283
:100CD000A0915102B0915202A7019601281B390B35
:100CE0004A0B5B0BDA01C90188389341A105B105B4
:100CF00070F04092530250925402609255027092EA
:100D00005602B701A6018AE492E00E94270380916F
:100D10004F0290915002A0915102B0915202A7014E
:100D20009601281B390B4A0B5B0BDA01C9018C3287
:100D30009140A105B10550F080914E02882331F019
:100D4000B701A6018AE492E00E94F2020E944801E3
:100D50004B015C0182E3C82ED12CE12CF12C0E94C6
:100D60004801681979098A099B09683E7340810521
:100D70009105A8F341E0C41AD108E108F10858EE42
:100D8000850E53E0951EA11CB11CC114D104E104D1
:100D9000F10429F720E030E0232B09F468CE0E940B
:100DA000E401882309F463CE0E94000060CE85E54B
:100DB00091E00E946A03B701A60181E792E00E94D8
:100DC00087023FCF3092410261E080913F020E9452
:100DD000DE007ACFA1E21A2EAA1BBB1BFD010DC0BB
:100DE000AA1FBB1FEE1FFF1FA217B307E407F507DB
:100DF00020F0A21BB30BE40BF50B661F771F881FB7
:100E0000991F1A9469F760957095809590959B014C
:100E1000AC01BD01CF010895EE0FFF1F0590F491C5
:100E2000E02D099481E090E0F8940C941707F89471
:020E3000FFCFF2
:100E32000000000078037803000000001A027A0123
:100E4200A7016702D801B601CA01000000006D01C6
:100E52007401000000002703F20200000000BC023F
:100E620087020D0A00436F6E74616E646F2E2E2E20
:100E7200004C4544204C6172616E6A61204C696786
:100E8200616E646F004C4544204C6172616E6A6110
:100E9200204465736C6967616E646F0046696D20FA
:100EA2006461207069736361646120646F204C45E2
:0A0EB20044206C6172616E6A6100F9
:00000001FF
