:100000000C9462000C948A000C948A000C948A0070
:100010000C948A000C948A000C948A000C948A0038
:100020000C948A000C948A000C948A000C948A0028
:100030000C948A000C948A000C948A000C948A0018
:100040000C9416020C948A000C948A000C948A007A
:100050000C948A000C948A000C948A000C948A00F8
:100060000C948A000C948A000000000024002700F1
:100070002A0000000000250028002B0000000000DE
:1000800023002600290004040404040404040202DA
:100090000202020203030303030301020408102007
:1000A0004080010204081020010204081020000012
:1000B0000008000201000003040700000000000027
:1000C0000000390411241FBECFEFD8E0DEBFCDBF42
:1000D00011E0A0E0B1E0E2E5F9E002C005900D9288
:1000E000A032B107D9F721E0A0E2B1E001C01D9232
:1000F000A537B207E1F710E0C2E6D0E004C02197CF
:10010000FE010E949C04C136D107C9F70E94AE02CD
:100110000C94A7040C940000833081F028F4813003
:1001200099F08230A9F008958730A9F08830C9F09D
:100130008430B1F4809180008F7D03C08091800075
:100140008F7780938000089584B58F7784BD08955C
:1001500084B58F7DFBCF8091B0008F778093B00006
:1001600008958091B0008F7DF9CFCF93DF93282F32
:1001700030E0F901E255FF4F8491F901E656FF4F57
:10018000D491F901EA57FF4FC491CC23A1F081111A
:100190000E948C00EC2FF0E0EE0FFF1FE458FF4FA1
:1001A000A591B491EC91ED2381E090E009F480E019
:1001B000DF91CF91089580E090E0FACF1F93CF9325
:1001C000DF93282F30E0F901E255FF4F8491F901C8
:1001D000E656FF4FD491F901EA57FF4FC491CC2363
:1001E000A9F0162F81110E948C00EC2FF0E0EE0F89
:1001F000FF1FEE58FF4FA591B4918FB7F894EC9183
:10020000111108C0D095DE23DC938FBFDF91CF9111
:100210001F910895DE2BF8CF3FB7F89480917101BC
:1002200090917201A0917301B091740126B5A89BC1
:1002300005C02F3F19F00196A11DB11D3FBFBA2F78
:10024000A92F982F8827BC01CD01620F711D811D38
:10025000911D42E0660F771F881F991F4A95D1F7BD
:100260000895FC01148260E082810C94DE0021E09C
:10027000FC01248361E082810C94DE00CF92DF9246
:10028000EF92FF920F931F93CF93DF93EC018D8139
:100290009E81AF81B8858A019B01081B190B2A0B2F
:1002A0003B0BD901C801C984DA84EB84FC848C152A
:1002B0009D05AE05BF0570F08C81882359F06A0159
:1002C0007B011C8260E08A810E94DE00CD82DE829A
:1002D000EF82F886DF91CF911F910F91FF90EF9001
:1002E000DF90CF900895CF92DF92EF92FF920F931D
:1002F0001F93CF93DF93EC018D819E81AF81B885F1
:100300008A019B01081B190B2A0B3B0BD901C80161
:10031000C984DA84EB84FC848C159D05AE05BF0589
:1003200078F08C8181110CC06A017B0181E08C83A3
:1003300061E08A810E94DE00CD82DE82EF82F88653
:10034000DF91CF911F910F91FF90EF90DF90CF90B1
:100350000895CF92DF92EF92FF920F931F93CF9366
:10036000DF93EC018D819E81AF81B8858A019B016D
:10037000081B190B2A0B3B0BD901C801C984DA846D
:10038000EB84FC848C159D05AE05BF0570F08C8157
:10039000882359F06A017B011C8260E08A810E94F7
:1003A000DE00CD82DE82EF82F886DF91CF911F9151
:1003B0000F91FF90EF90DF90CF900895CF92DF9252
:1003C000EF92FF920F931F93CF93DF93EC018D81F8
:1003D0009E81AF81B8858A019B01081B190B2A0BEE
:1003E0003B0BD901C801C984DA84EB84FC848C15E9
:1003F0009D05AE05BF0578F08C8181110CC06A01A6
:100400007B0181E08C8361E08A810E94DE00CD82E5
:10041000DE82EF82F886DF91CF911F910F91FF90DE
:10042000EF90DF90CF9008950E94A2041F920F9248
:100430000FB60F9211242F933F938F939F93AF93F7
:10044000BF9380916D0190916E01A0916F01B09169
:10045000700130916C0123E0230F2D3758F5019680
:10046000A11DB11D20936C0180936D0190936E01CD
:10047000A0936F01B093700180917101909172010E
:10048000A0917301B09174010196A11DB11D8093DB
:10049000710190937201A0937301B0937401BF91A5
:1004A000AF919F918F913F912F910F900FBE0F9021
:1004B0001F90189526E8230F0296A11DB11DD2CFDB
:1004C000CF93DF9390E0FC01E656FF4F24918A57CB
:1004D0009F4FFC0184918823D1F090E0880F991FF1
:1004E000FC01E859FF4FA591B491FC01EE58FF4F74
:1004F000C591D49161110EC09FB7F8948C91E22FF1
:10050000E0958E238C932881E223E8839FBFDF91BF
:10051000CF9108958FB7F894EC91E22BEC938FBFB5
:10052000F6CFCF93DF93EC01862F24E131E03983BE
:1005300028836A837B831C821D821E821F82188609
:1005400019861A861B861C8661E00E9460028CE177
:1005500091E099838883DF91CF910895789484B551
:10056000826084BD84B5816084BD85B5826085BDAF
:1005700085B5816085BD80916E00816080936E003D
:10058000109281008091810082608093810080912F
:1005900081008160809381008091800081608093E0
:1005A00080008091B10084608093B1008091B000A0
:1005B00081608093B00080917A00846080937A009B
:1005C00080917A00826080937A0080917A008160C5
:1005D00080937A0080917A00806880937A001092EC
:1005E000C100C0E0D0E011E09CEB492E92E0592E12
:1005F000612C712C8FB7F894C0906D01D0906E0172
:10060000E0906F01F09070018FBF809169010E94AE
:10061000B50021E0009709F420E020936B01892BBD
:10062000E1F080916801811118C0B701A6018BE546
:1006300091E00E94DE01C0925701D0925801E092F1
:100640005901F0925A01C0924F01D0925001E092AC
:100650005101F09252011093680180916801882342
:1006600009F4D6C0809147010E94B50021E00097AF
:1006700009F420E020934901892BF9F0B701A60184
:100680008AE391E00E9473011093310161E080914F
:100690002F010E94DE00C0923F01D0924001E09203
:1006A0004101F0924201C0922501D0922601E092D0
:1006B0002701F0922801109268012CEBC21622E06B
:1006C000D206E104F104B0F040925301509254017B
:1006D0006092550170925601B701A6018AE491E03B
:1006E0000E947301C0924F01D0925001E0925101DB
:1006F000F09252018091570190915801A0915901B7
:10070000B0915A01A7019601281B390B4A0B5B0BCC
:10071000DA01C901803E9E42A105B105F8F0B7019A
:10072000A60180E291E00E9473011092310160E025
:1007300080912F010E94DE00C0923F01D0924001C3
:10074000E0924101F0924201C0922501D09226012F
:10075000E0922701F09228011092680148E8C4163F
:1007600043E1D406E104F10408F452C088E893E1BF
:10077000A0E0B0E08093640190936501A0936601CE
:10078000B0936701B701A6018BE591E00E94DE01FD
:10079000C0926001D0926101E0926201F092630127
:1007A00080914E01882371F0B701A6018AE491E09F
:1007B0000E943E01C0924F01D0925001E09251013F
:1007C000F092520180915F01882371F0B701A60178
:1007D0008BE591E00E94A901C0926001D092610175
:1007E000E0926201F0926301A8EBCA16ABE0DA0670
:1007F000E104F104A0F0B701A6018AE391E00E94B0
:100800003E01B701A60180E291E00E943E0107C0CF
:100810009CE2C91691E0D906E104F10408F60E94B1
:100820000C014B015C0182E3C82ED12CE12CF12C90
:100830000E940C01681979098A099B09683E734076
:1008400081059105A8F3B1E0CB1AD108E108F108C0
:1008500028EE820E23E0921EA11CB11CC114D1040B
:10086000E104F10429F7209709F4C4CE0E940000A6
:10087000C1CE0F931F93CF93DF9361E070E08AE3C3
:1008800091E00E94910262E070E08AE491E00E94AF
:10089000910270E060E080E291E00E949102CBE57D
:1008A000D1E004E111E01983088385E090E09B83A7
:1008B0008A831C821D821E821F82188619861A86D0
:1008C0001B861C8661E00E9460028CE091E09983A7
:1008D0008883CDE2D1E01983088386E090E09B8392
:1008E0008A831C821D821E821F82188619861A86A0
:1008F0001B861C8661E00E94600284E091E099837F
:100900008883C9E6D1E083E090E09983888360E042
:100910000E9460021A8260E088810E94DE0084E00A
:1009200090E0909348018093470160E0DF91CF9180
:100930001F910F910C946002EE0FFF1F0590F49130
:10094000E02D099481E090E0F8940C94A704F894C9
:02095000FFCFD7
:10095200000000003701310100000000DE01A901A2
:1009620000000000140214020000000073013E01A6
:00000001FF
